:1000000019EF00F0EA6A070EE96EEF50D8B417EF67
:1000100000F0050E016E006A002EFED7012EFBD700
:100020002E0E006E002EFED700D0EF2EF2D738EF46
:1000300000F0F86AD09EC150C00B0F09C16E070EC8
:10004000B46E600ED36E400E9B6ED350000E936E56
:10005000800E056E936A05C08AFFD890053205525E
:1000600002E1800E056E020E066EFA0E076ECAD70A
:08007000062EFBD7EFD70300B9
:020000040030CA
:0E0000000002181E000581000FC00FE00F4027
:00000001FF
;PIC18F4620
;CRC=02A9  CREATED="28-feb.-19 11:37"
